:100000000C9446000C9465000C9465000C946500FB
:100010000C9465000C9465000C9465000C946500CC
:100020000C9465000C9465000C9465000C946500BC
:100030000C9465000C94E0010C9465000C94650030
:100040000C9465000C9465000C9465000C9465009C
:100050000C9465000C9465000C9465000C9465008C
:100060000C9465000C9465000C9465000C9465007C
:100070000C9465000C9465000C9465000C9465006C
:100080000C9465000C9465000C94650011241FBE4F
:10009000CFEFD0E4DEBFCDBF11E0A0E0B1E0ECEBEC
:1000A000F7E000E00BBF02C007900D92A231B1074C
:1000B000D9F721E0A2E1B1E001C01D92AA31B20757
:1000C000E1F70E9487030C94DC030C940000CF93AB
:1000D000DF93CDB7DEB781E00E948E000000DF9194
:1000E000CF910895CF93DF93CDB7DEB784E690E04C
:1000F0000E94330188E30E948E0086E00E948E00F9
:100100008FE00E948E0081E00E948E008AE090E0E5
:100110000E9433010000DF91CF910895CF93DF93C8
:100120000F92CDB7DEB789838BE290E0FC0120818E
:100130008BE290E02F7BFC01208382E290E029811A
:10014000FC0120838BE290E0FC0120818BE290E0B7
:100150002068FC01208300008BE290E0FC012081FC
:100160008BE290E02F77FC01208382E090E00E94F8
:10017000330100000F90DF91CF910895CF93DF936B
:100180000F92CDB7DEB789838BE290E0FC0120812E
:100190008BE290E02064FC01208382E290E02981E0
:1001A000FC0120838BE290E0FC0120818BE290E057
:1001B0002068FC01208300008BE290E0FC0120819C
:1001C0008BE290E02F77FC01208381E090E00E9499
:1001D000330100000F90DF91CF910895CF93DF930B
:1001E00000D000D0CDB7DEB78A837C836B830E94BA
:1001F00067008A81898311C0898191E0980F998372
:100200000E941C018B819C819C012F5F3F4F3C838E
:100210002B83FC0180810E94BE008B819C81FC01AC
:100220008081882349F7000000000F900F900F9005
:100230000F90DF91CF910895CF93DF930F92CDB7B9
:10024000DEB789838981813128F4898181580E94B0
:100250008E0004C0898181550E948E0000000F909D
:10026000DF91CF910895CF93DF9300D000D000D0DD
:10027000CDB7DEB79E838D831A82198213C01C828C
:100280001B8206C000008B819C8101969C838B831E
:100290008B819C8187309340ACF389819A81019650
:1002A0009A83898329813A818D819E812817390714
:1002B00034F30000000026960FB6F894DEBF0FBEA0
:1002C000CDBFDF91CF910895CF93DF9300D000D0C1
:1002D000CDB7DEB769837A838B839C8389819A81CA
:1002E000AB81BC818093000190930101A093020136
:1002F000B09303018091000190910101A09102014E
:10030000B09103018093130190931401A093150100
:10031000B093160100000F900F900F900F90DF9197
:10032000CF910895CF93DF93CDB7DEB781E890E00A
:100330002BE0FC01208388E890E02DE730E0FC0111
:10034000318320838FE690E022E0FC01208384E863
:1003500090E0FC01118210828091000190910101D6
:10036000A0910201B09103018093130190931401B5
:10037000A0931501B09316018FE590E0FC01208158
:100380008FE590E02068FC0120830000DF91CF9191
:100390000895CF93DF93CDB7DEB781E890E0FC01FD
:1003A00010820000DF91CF910895CF93DF93CDB7F6
:1003B000DEB781E0809312010000DF91CF910895B4
:1003C0001F920F920FB60F9211240BB60F922F931C
:1003D0003F934F935F936F937F938F939F93AF93CD
:1003E000BF93EF93FF93CF93DF93CDB7DEB78091A9
:1003F000130190911401A0911501B091160101977C
:10040000A109B1098093130190931401A0931501E0
:10041000B09316018091130190911401A0911501E0
:10042000B0911601892B8A2B8B2B91F40E94D50158
:100430008091000190910101A0910201B09103010E
:100440008093130190931401A0931501B0931601AA
:100450000000DF91CF91FF91EF91BF91AF919F91FC
:100460008F917F916F915F914F913F912F910F905D
:100470000BBE0F900FBE0F901F9018950F931F93F8
:10048000CF93DF93CDB7DEB768970FB6F894DEBF92
:100490000FBECDBF6D837E838F83988729873A8770
:1004A0004B875C878D819E81AF81B885898B9A8BC4
:1004B000AB8BBC8B09851A852B853C8569897A892C
:1004C0008B899C89A90198010E94BA036D8B7E8B50
:1004D0008F8B988F8D899E89AF89B88D89839A83F8
:1004E000AB83BC8389819A81AB81BC81892B8A2BA8
:1004F0008B2B29F489859A85AB85BC8511C08985AC
:100500009A85AB85BC858D839E83AF83B8878981AF
:100510009A81AB81BC8189879A87AB87BC87C2CF20
:100520008D879E87AF87B88B6D857E858F859889EF
:1005300068960FB6F894DEBF0FBECDBFDF91CF91A6
:100540001F910F910895CF93DF9300D00F92CDB7F5
:10055000DEB789837B836A8389818A3031F48A811B
:100560009B81BC018DE00E94A30280EC90E0FC0125
:100570008081882F90E080729927892BB1F386ECD7
:1005800090E02981FC01208380E090E00F900F90A3
:100590000F90DF91CF910895CF93DF93CDB7DEB762
:1005A00080911801909119018430910509F44DC092
:1005B0008530910508F05CC08330910509F45DC079
:1005C0008430910508F054C08230910509F457C079
:1005D0008330910508F04CC0009719F0019741F065
:1005E00047C081E090E090931901809318014AC0C0
:1005F00083E290E0FC018081882F90E080959095C7
:1006000083709927019739F482E090E09093190163
:100610008093180137C083E290E0FC018081882F2D
:1006200090E08095909583709927029739F483E044
:1006300090E0909319018093180124C081E090E02C
:1006400090931901809318011DC083E290E0FC0192
:100650008081882F90E08095909583709927892BD1
:1006600081F481E090E0909319018093180109C012
:10067000109219011092180105C0000003C000007B
:1006800001C00000809118019091190184309105FA
:10069000A9F18530910568F583309105E1F084304A
:1006A000910538F58230910541F08330910508F5C8
:1006B000009731F1019731F11CC088E890E02CE2FD
:1006C00031E0FC013183208384E090E090931901B4
:1006D0008093180118C088E890E02FEA30E0FC0110
:1006E0003183208384E090E0909319018093180176
:1006F0000AC0109219011092180105C0000003C031
:10070000000001C000000000DF91CF910895CF9359
:10071000DF93CDB7DEB784E290E0FC01108285E282
:1007200090E02FEFFC0120838AE290E02FEFFC01A4
:1007300020838BE290E0FC01108284E890E0FC01D1
:100740001182108286E890E023EC39E0FC013183CD
:10075000208380E890E022E8FC01208381E890E09B
:100760002BE1FC01208310921901109218010E94C4
:10077000CC02FDCFA1E21A2EAA1BBB1BFD010DC0AE
:10078000AA1FBB1FEE1FFF1FA217B307E407F50741
:1007900020F0A21BB30BE40BF50B661F771F881F1D
:1007A000991F1A9469F760957095809590959B01B3
:0C07B000AC01BD01CF010895F894FFCF0B
:1007BC00010000000000000200000000A302000085
:0207CC0000002B
:00000001FF
